{
  "contractName": "Election",
  "abi": [
    {
      "constant": true,
      "inputs": [],
      "name": "bossman",
      "outputs": [
        {
          "name": "",
          "type": "address"
        }
      ],
      "payable": false,
      "stateMutability": "view",
      "type": "function"
    },
    {
      "constant": true,
      "inputs": [
        {
          "name": "",
          "type": "address"
        }
      ],
      "name": "voters",
      "outputs": [
        {
          "name": "delegate",
          "type": "address"
        },
        {
          "name": "voted",
          "type": "bool"
        },
        {
          "name": "weight",
          "type": "uint256"
        },
        {
          "name": "vote",
          "type": "uint256"
        }
      ],
      "payable": false,
      "stateMutability": "view",
      "type": "function"
    },
    {
      "inputs": [],
      "payable": false,
      "stateMutability": "nonpayable",
      "type": "constructor"
    },
    {
      "constant": false,
      "inputs": [],
      "name": "returnAddress",
      "outputs": [
        {
          "name": "",
          "type": "address"
        }
      ],
      "payable": false,
      "stateMutability": "nonpayable",
      "type": "function"
    },
    {
      "constant": false,
      "inputs": [],
      "name": "kill",
      "outputs": [],
      "payable": false,
      "stateMutability": "nonpayable",
      "type": "function"
    }
  ],
  "bytecode": "0x608060405234801561001057600080fd5b50336000806101000a81548173ffffffffffffffffffffffffffffffffffffffff021916908373ffffffffffffffffffffffffffffffffffffffff16021790555060018060008060009054906101000a900473ffffffffffffffffffffffffffffffffffffffff1673ffffffffffffffffffffffffffffffffffffffff1673ffffffffffffffffffffffffffffffffffffffff168152602001908152602001600020600101819055506102b4806100c86000396000f3fe608060405234801561001057600080fd5b506004361061004c5760003560e01c806326fbc54b1461005157806341c0e1b51461009b578063943640c3146100a5578063a3ec138d146100ef575b600080fd5b61005961018c565b604051808273ffffffffffffffffffffffffffffffffffffffff1673ffffffffffffffffffffffffffffffffffffffff16815260200191505060405180910390f35b6100a36101b1565b005b6100ad610223565b604051808273ffffffffffffffffffffffffffffffffffffffff1673ffffffffffffffffffffffffffffffffffffffff16815260200191505060405180910390f35b6101316004803603602081101561010557600080fd5b81019080803573ffffffffffffffffffffffffffffffffffffffff16906020019092919050505061022b565b604051808573ffffffffffffffffffffffffffffffffffffffff1673ffffffffffffffffffffffffffffffffffffffff1681526020018415151515815260200183815260200182815260200194505050505060405180910390f35b6000809054906101000a900473ffffffffffffffffffffffffffffffffffffffff1681565b6000809054906101000a900473ffffffffffffffffffffffffffffffffffffffff1673ffffffffffffffffffffffffffffffffffffffff163373ffffffffffffffffffffffffffffffffffffffff161461020a57600080fd5b3373ffffffffffffffffffffffffffffffffffffffff16ff5b600033905090565b60016020528060005260406000206000915090508060000160009054906101000a900473ffffffffffffffffffffffffffffffffffffffff16908060000160149054906101000a900460ff1690806001015490806002015490508456fea165627a7a7230582051dd2e1ce7f22cae1b09675d8dc12ee36af010da633ce3bc2901798a3c08839a0029",
  "source": "pragma solidity ^0.5.0;\n\n/// @title An Election testing platform\n/// @author WG\n/// @notice This is for testing only\n\ncontract Election {\n\n    address public bossman;\n\n    struct Candidate {\n        uint id;\n        string name;\n        uint voteCount;\n    }\n\n    struct Voter {\n        address delegate;\n        bool voted;\n        uint weight;\n        uint vote;\n    }\n\n    mapping(address => Voter) public voters;\n\n    constructor () public {\n        bossman = msg.sender;\n        voters[bossman].weight = 1;\n    }\n\n    modifier onlyBoss() {\n        require(msg.sender == bossman);\n        _;\n    }\n\n    function returnAddress() public returns (address){\n        return msg.sender;\n    }\n/*\n    function returnBalance() public {\n        return msg.sender.balance();\n    }\n\n    function returnInfo() public onlyBoss {\n\n    }\n*/\n    function kill() public onlyBoss {\n        selfdestruct(msg.sender);\n    }\n}",
  "sourcePath": "/home/cyborg/Documents/dApp/election01/contracts/Election.sol",
  "compiler": {
    "name": "solc",
    "version": "0.5.8+commit.23d335f2.Emscripten.clang"
  },
  "schemaVersion": "3.0.17",
  "updatedAt": "2019-11-05T05:07:30.455Z",
  "devdoc": {
    "author": "WG",
    "methods": {},
    "title": "An Election testing platform"
  },
  "userdoc": {
    "methods": {},
    "notice": "This is for testing only"
  }
}