{
  "contractName": "Law",
  "abi": [
    {
      "inputs": [
        {
          "name": "memberAddr",
          "type": "address"
        }
      ],
      "payable": false,
      "stateMutability": "nonpayable",
      "type": "constructor"
    },
    {
      "anonymous": false,
      "inputs": [
        {
          "indexed": true,
          "name": "_from",
          "type": "address"
        },
        {
          "indexed": true,
          "name": "_id",
          "type": "uint256"
        }
      ],
      "name": "ProposalCreated",
      "type": "event"
    },
    {
      "constant": false,
      "inputs": [],
      "name": "test",
      "outputs": [],
      "payable": false,
      "stateMutability": "nonpayable",
      "type": "function"
    },
    {
      "constant": false,
      "inputs": [],
      "name": "kill",
      "outputs": [],
      "payable": false,
      "stateMutability": "nonpayable",
      "type": "function"
    }
  ],
  "bytecode": "0x608060405234801561001057600080fd5b506040516020806101b68339810180604052602081101561003057600080fd5b8101908080519060200190929190505050806000806101000a81548173ffffffffffffffffffffffffffffffffffffffff021916908373ffffffffffffffffffffffffffffffffffffffff1602179055506000600181905550600060038190555060016005819055505061010d806100a96000396000f3fe6080604052348015600f57600080fd5b506004361060325760003560e01c806341c0e1b5146037578063f8a8fd6d14603f575b600080fd5b603d6047565b005b60456060565b005b3373ffffffffffffffffffffffffffffffffffffffff16ff5b6000809054906101000a900473ffffffffffffffffffffffffffffffffffffffff1673ffffffffffffffffffffffffffffffffffffffff1663e034fd516040518163ffffffff1660e01b8152600401600060405180830381600087803b15801560c857600080fd5b505af115801560db573d6000803e3d6000fd5b5050505056fea165627a7a72305820597601fa8a3123c25ea6364528c8e7f775f6ee9bdfe2b1faa0d3f133aefb4a9f0029",
  "source": "pragma solidity ^0.5.0;\n\nimport \"./Members.sol\";\n\n/**\n\n@title An Election testing platform\n@author WG\n\n@notice Proposal duration time is in minutes\n@dev Currently using 'now' for time\n\nNotes:\n\n* Member        an address\n* Vote          member vote\n* Bill          articles of legislation\n* Proposal      member vote on law modifications\n* Law           collection of passed bills\n\n*/\n\ncontract Law {\n\n    event ProposalCreated(\n        address indexed _from,\n        uint indexed _id\n    );\n\n// - Structures -\n\n    struct Bill {\n        uint id;\n        string name;\n        string data;\n    }\n    struct Proposal {\n        uint id;\n        address creator;\n        uint start_time;\n        uint duration;\n        address[] voters;\n        mapping(address => bool) votes;\n        Bill bill;\n        bool complete;\n        bool pass;\n    }\n\n// - Variables -\n    // members\n    Members members;\n    // proposals\n    uint proposal_count; // continuing ID\n    Proposal[] proposals;\n    // law\n    uint law_count; // continuing ID\n    Bill[] law;\n    // other\n    uint default_duration;\n\n// - Constructor -\n    constructor (address memberAddr) public {\n        members = Members(memberAddr);\n\n        proposal_count = 0;\n        law_count = 0;\n        default_duration = 1;\n    }\n\n// - Modifiers -\n\n// - Private Functions -\n\n    function checkMember() private view {\n        require(members.checkMemberExist(msg.sender) >= 0, \"You are not a member.\");\n    }\n    function checkBoss() private view {\n        checkMember();\n        require(members.checkMemberIsBoss(msg.sender), \"You are not a boss.\");\n    }\n\n    function test() public {\n        members.emitMemberList();\n    }\n/*\n//    /// @param id: Proposal ID\n    function checkProposalExist(uint id) private view returns (int) {\n        int l = -1;\n        for (uint i = 0; i<proposals.length; i++) {\n            if (proposals[i].id == id) {\n                l = int(i);\n                i = proposals.length;\n            }\n        }\n        return l;\n    }\n//    /// @param id: Law ID\n    function checkLawExist(uint id) private view returns (int) {\n        int l = -1;\n        for (uint i = 0; i<law.length; i++) {\n            if (law[i].id == id) {\n                l = int(i);\n                i = law.length;\n            }\n        }\n        return l;\n    }\n//    /// @param a: The members address\n//    /// @param l: The proposals array location\n    /// @return False if a vote has not been cast\n    function checkVoteCast(address a, uint l) private view returns (bool) {\n        bool cast = false;\n        uint vote_count = proposals[l].voters.length;\n        for (uint i = 0; i<vote_count; i++) {\n            if(a == proposals[l].voters[i]) {\n                cast = true;\n                i = vote_count;\n            }\n        }\n        return cast;\n    }\n    /// @notice Require proposal pass\n//    /// @param b: Bill to add\n    function addLaw(Bill storage b) private {\n        uint id = law_count;\n        law_count++;\n        b.id = id;\n        law.push(b);\n    }\n    /// @notice Require proposal pass\n//    /// @param  id: Bill ID to remove\n    function removeLaw(uint id) private {\n        int l = checkLawExist(id);\n        require(l >= 0, \"The given Bill ID does not exist.\");\n        delete law[uint(l)];\n    }\n\n// - Public Functions -\n\n    /// @notice Require member\n    /// @dev Consider adding different proposal actions\n//    /// @param n: Bill name\n//    /// @param d: Bill description\n    function createProposal(string memory n, string memory d) public {\n        checkMember();\n        Proposal memory p;\n        p.id = proposal_count;\n        proposal_count++;\n        p.creator = msg.sender;\n        // Bill\n        Bill memory b;\n        b.id = p.id;\n        b.name = n;\n        b.data = d;\n        //\n        p.bill = b;\n        p.start_time = now;\n        p.duration = default_duration;\n        p.complete = false;\n        p.pass = false;\n        //\n        proposals.push(p);\n        emit ProposalCreated(p.creator, p.id);\n    }\n//    /// @param id: Proposal ID to cancel\n    function cancelProposal(uint id) public {\n        checkBoss();\n        int l = checkProposalExist(id);\n        require(l >= 0, \"Given Proposal ID is invalid.\");\n        delete proposals[uint(l)];\n    }\n    /// @notice pass (true) or fail (false)\n//    /// @param id: proposal id\n//    /// @param pass: the members vote (true, false)\n    function vote(uint id, bool pass) public {\n        address a = msg.sender;\n        int lm = members.checkMemberExist(a);\n        require(lm >= 0, \"You are not a member\");\n        int lp = checkProposalExist(id);\n        require(lp >= 0, \"Given Proposal ID is invalid.\");\n        // check if member has voted yet\n        require(checkVoteCast(a, uint(lp)), \"Your vote has already been cast for this Proposal.\");\n        // apply vote\n        proposals[uint(lp)].votes[a] = pass;\n        proposals[uint(lp)].voters.push(a);\n    }\n    /// @notice onlyBoss\n//    /// @param id: proposal id\n    function closeProposal(uint id) public {\n        checkBoss();\n        int l = checkProposalExist(id);\n        require(l >= 0, \"Given Proposal ID is invalid.\");\n        // check if end time has been reached\n        uint start = proposals[uint(l)].start_time;\n        uint duration = proposals[uint(l)].duration * 1 minutes;\n        //uint duration = proposals[uint(l)].duration * 1 hours;\n        uint end_time = start + duration;\n        uint time = now;\n        require(time >= end_time, \"The Proposal is still in.\");\n        proposals[uint(l)].complete = true;\n        // tally votes\n        uint votes_for = 0;\n        uint vote_count = proposals[uint(l)].voters.length;\n        for (uint i = 0; i<vote_count; i++) {\n            address voter = proposals[uint(l)].voters[i];\n            if (proposals[uint(l)].votes[voter]) votes_for++;\n        }\n        // if passed...\n        // add to law\n        uint score = votes_for / vote_count * 100;\n        if (score > 50) {\n            proposals[uint(l)].pass = true;\n            Bill memory b = proposals[uint(l)].bill;\n            law.push(b);\n            law_count++;\n        }\n\n    }\n    // Return list of running proposals\n    function returnProposalCount() public view returns (uint) {\n        return proposals.length;\n    }\n    // Return laws\n    function returnLawCount() public view returns (uint) {\n        return law.length;\n    }\n\n// - Testing -\n    // /// @return Return senders adress\n    function returnSenderAddress() public view returns (address) {\n        return msg.sender;\n    }\n    function returnNow() public view returns (uint) {\n        return uint(now);\n    }\n    function testBoss() public view returns (bool) {\n        if (msg.sender == members.bossman) return true;\n        return false;\n    }\n/*\n    function returnBalance() public {\n        return msg.sender.balance();\n    }\n\n    function returnInfo() public onlyBoss {\n\n    }\n*/\n\n// - Tools -\n    function kill() public {\n        //checkBoss();\n        selfdestruct(msg.sender);\n    }\n}",
  "sourcePath": "/home/cyborg/Documents/dApp/group/contracts/Law.sol",
  "compiler": {
    "name": "solc",
    "version": "0.5.8+commit.23d335f2.Emscripten.clang"
  },
  "schemaVersion": "3.0.17",
  "updatedAt": "2019-11-09T09:08:11.317Z",
  "networkType": "ethereum",
  "devdoc": {
    "author": "WG",
    "details": "Currently using 'now' for time Notes: Member        an address Vote          member vote Bill          articles of legislation Proposal      member vote on law modifications Law           collection of passed bills",
    "methods": {},
    "title": "An Election testing platform"
  },
  "userdoc": {
    "methods": {},
    "notice": "Proposal duration time is in minutes"
  }
}