{
  "contractName": "Law",
  "abi": [
    {
      "inputs": [
        {
          "name": "b",
          "type": "address"
        }
      ],
      "payable": false,
      "stateMutability": "nonpayable",
      "type": "constructor"
    },
    {
      "anonymous": false,
      "inputs": [
        {
          "indexed": true,
          "name": "_a",
          "type": "address"
        }
      ],
      "name": "MemberAdded",
      "type": "event"
    },
    {
      "anonymous": false,
      "inputs": [
        {
          "indexed": true,
          "name": "_from",
          "type": "address"
        },
        {
          "indexed": true,
          "name": "_id",
          "type": "uint256"
        }
      ],
      "name": "ProposalCreated",
      "type": "event"
    },
    {
      "constant": false,
      "inputs": [
        {
          "name": "a",
          "type": "address"
        }
      ],
      "name": "addMember",
      "outputs": [],
      "payable": false,
      "stateMutability": "nonpayable",
      "type": "function"
    },
    {
      "constant": false,
      "inputs": [
        {
          "name": "a",
          "type": "address"
        }
      ],
      "name": "removeMember",
      "outputs": [],
      "payable": false,
      "stateMutability": "nonpayable",
      "type": "function"
    },
    {
      "constant": false,
      "inputs": [
        {
          "name": "n",
          "type": "string"
        },
        {
          "name": "d",
          "type": "string"
        }
      ],
      "name": "createProposal",
      "outputs": [],
      "payable": false,
      "stateMutability": "nonpayable",
      "type": "function"
    },
    {
      "constant": false,
      "inputs": [
        {
          "name": "id",
          "type": "uint256"
        }
      ],
      "name": "cancelProposal",
      "outputs": [],
      "payable": false,
      "stateMutability": "nonpayable",
      "type": "function"
    },
    {
      "constant": false,
      "inputs": [
        {
          "name": "id",
          "type": "uint256"
        },
        {
          "name": "pass",
          "type": "bool"
        }
      ],
      "name": "vote",
      "outputs": [],
      "payable": false,
      "stateMutability": "nonpayable",
      "type": "function"
    },
    {
      "constant": false,
      "inputs": [
        {
          "name": "id",
          "type": "uint256"
        }
      ],
      "name": "closeProposal",
      "outputs": [],
      "payable": false,
      "stateMutability": "nonpayable",
      "type": "function"
    },
    {
      "constant": true,
      "inputs": [],
      "name": "returnMemberCount",
      "outputs": [
        {
          "name": "",
          "type": "uint256"
        }
      ],
      "payable": false,
      "stateMutability": "view",
      "type": "function"
    },
    {
      "constant": true,
      "inputs": [],
      "name": "returnProposalCount",
      "outputs": [
        {
          "name": "",
          "type": "uint256"
        }
      ],
      "payable": false,
      "stateMutability": "view",
      "type": "function"
    },
    {
      "constant": true,
      "inputs": [],
      "name": "returnLawCount",
      "outputs": [
        {
          "name": "",
          "type": "uint256"
        }
      ],
      "payable": false,
      "stateMutability": "view",
      "type": "function"
    },
    {
      "constant": true,
      "inputs": [],
      "name": "returnSenderAddress",
      "outputs": [
        {
          "name": "",
          "type": "address"
        }
      ],
      "payable": false,
      "stateMutability": "view",
      "type": "function"
    },
    {
      "constant": true,
      "inputs": [],
      "name": "returnNow",
      "outputs": [
        {
          "name": "",
          "type": "uint256"
        }
      ],
      "payable": false,
      "stateMutability": "view",
      "type": "function"
    },
    {
      "constant": true,
      "inputs": [],
      "name": "testBoss",
      "outputs": [
        {
          "name": "",
          "type": "bool"
        }
      ],
      "payable": false,
      "stateMutability": "view",
      "type": "function"
    },
    {
      "constant": false,
      "inputs": [],
      "name": "kill",
      "outputs": [],
      "payable": false,
      "stateMutability": "nonpayable",
      "type": "function"
    }
  ],
  "bytecode": "0x608060405234801561001057600080fd5b50604051602080611def8339810180604052602081101561003057600080fd5b8101908080519060200190929190505050806000806101000a81548173ffffffffffffffffffffffffffffffffffffffff021916908373ffffffffffffffffffffffffffffffffffffffff16021790555060026000809054906101000a900473ffffffffffffffffffffffffffffffffffffffff1690806001815401808255809150509060018203906000526020600020016000909192909190916101000a81548173ffffffffffffffffffffffffffffffffffffffff021916908373ffffffffffffffffffffffffffffffffffffffff160217905550506001808190555060006003819055506000600581905550600160078190555050611cb8806101376000396000f3fe608060405234801561001057600080fd5b50600436106100cf5760003560e01c80639f22d3131161008c578063ca6d56dc11610066578063ca6d56dc14610384578063e0a8f6f5146103c8578063ec759b32146103f6578063f4c78e1614610414576100cf565b80639f22d313146102e2578063b26dbeb31461032c578063c9d27afe1461034a576100cf565b80630386a016146100d457806306ec04e0146101025780630b1ca49a1461012457806341c0e1b51461016857806365e481e214610172578063718e573b146102c4575b600080fd5b610100600480360360208110156100ea57600080fd5b8101908080359060200190929190505050610432565b005b61010a6109f7565b604051808215151515815260200191505060405180910390f35b6101666004803603602081101561013a57600080fd5b81019080803573ffffffffffffffffffffffffffffffffffffffff169060200190929190505050610a5f565b005b610170610c1f565b005b6102c26004803603604081101561018857600080fd5b81019080803590602001906401000000008111156101a557600080fd5b8201836020820111156101b757600080fd5b803590602001918460018302840111640100000000831117156101d957600080fd5b91908080601f016020809104026020016040519081016040528093929190818152602001838380828437600081840152601f19601f8201169050808301925050505050505091929192908035906020019064010000000081111561023c57600080fd5b82018360208201111561024e57600080fd5b8035906020019184600183028401116401000000008311171561027057600080fd5b91908080601f016020809104026020016040519081016040528093929190818152602001838380828437600081840152601f19601f820116905080830192505050505050509192919290505050610cfa565b005b6102cc61108a565b6040518082815260200191505060405180910390f35b6102ea611097565b604051808273ffffffffffffffffffffffffffffffffffffffff1673ffffffffffffffffffffffffffffffffffffffff16815260200191505060405180910390f35b61033461109f565b6040518082815260200191505060405180910390f35b6103826004803603604081101561036057600080fd5b81019080803590602001909291908035151590602001909291905050506110ac565b005b6103c66004803603602081101561039a57600080fd5b81019080803573ffffffffffffffffffffffffffffffffffffffff169060200190929190505050611314565b005b6103f4600480360360208110156103de57600080fd5b8101908080359060200190929190505050611514565b005b6103fe611722565b6040518082815260200191505060405180910390f35b61041c61172f565b6040518082815260200191505060405180910390f35b6000809054906101000a900473ffffffffffffffffffffffffffffffffffffffff1673ffffffffffffffffffffffffffffffffffffffff163373ffffffffffffffffffffffffffffffffffffffff16146104f4576040517f08c379a00000000000000000000000000000000000000000000000000000000081526004018080602001828103825260078152602001807f44656e6965642e0000000000000000000000000000000000000000000000000081525060200191505060405180910390fd5b60006104ff82611737565b90506000811215610578576040517f08c379a000000000000000000000000000000000000000000000000000000000815260040180806020018281038252601d8152602001807f476976656e2050726f706f73616c20494420697320696e76616c69642e00000081525060200191505060405180910390fd5b60006004828154811061058757fe5b90600052602060002090600a02016002015490506000603c600484815481106105ac57fe5b90600052602060002090600a02016003015402905060008183019050600042905081811015610643576040517f08c379a00000000000000000000000000000000000000000000000000000000081526004018080602001828103825260198152602001807f5468652050726f706f73616c206973207374696c6c20696e2e0000000000000081525060200191505060405180910390fd5b60016004868154811061065257fe5b90600052602060002090600a020160090160006101000a81548160ff021916908315150217905550600080905060006004878154811061068e57fe5b90600052602060002090600a020160040180549050905060008090505b81811015610790576000600489815481106106c257fe5b90600052602060002090600a020160040182815481106106de57fe5b9060005260206000200160009054906101000a900473ffffffffffffffffffffffffffffffffffffffff1690506004898154811061071857fe5b90600052602060002090600a020160050160008273ffffffffffffffffffffffffffffffffffffffff1673ffffffffffffffffffffffffffffffffffffffff16815260200190815260200160002060009054906101000a900460ff16156107825783806001019450505b5080806001019150506106ab565b506000606482848161079e57fe5b0402905060328111156109ec576001600489815481106107ba57fe5b90600052602060002090600a020160090160016101000a81548160ff0219169083151502179055506107ea611963565b600489815481106107f757fe5b90600052602060002090600a020160060160405180606001604052908160008201548152602001600182018054600181600116156101000203166002900480601f0160208091040260200160405190810160405280929190818152602001828054600181600116156101000203166002900480156108b65780601f1061088b576101008083540402835291602001916108b6565b820191906000526020600020905b81548152906001019060200180831161089957829003601f168201915b50505050508152602001600282018054600181600116156101000203166002900480601f0160208091040260200160405190810160405280929190818152602001828054600181600116156101000203166002900480156109585780601f1061092d57610100808354040283529160200191610958565b820191906000526020600020905b81548152906001019060200180831161093b57829003601f168201915b5050505050815250509050600681908060018154018082558091505090600182039060005260206000209060030201600090919290919091506000820151816000015560208201518160010190805190602001906109b7929190611984565b5060408201518160020190805190602001906109d4929190611984565b50505050600560008154809291906001019190505550505b505050505050505050565b60008060009054906101000a900473ffffffffffffffffffffffffffffffffffffffff1673ffffffffffffffffffffffffffffffffffffffff163373ffffffffffffffffffffffffffffffffffffffff161415610a575760019050610a5c565b600090505b90565b6000809054906101000a900473ffffffffffffffffffffffffffffffffffffffff1673ffffffffffffffffffffffffffffffffffffffff163373ffffffffffffffffffffffffffffffffffffffff1614610b21576040517f08c379a00000000000000000000000000000000000000000000000000000000081526004018080602001828103825260078152602001807f44656e6965642e0000000000000000000000000000000000000000000000000081525060200191505060405180910390fd5b6000610b2c826117b9565b90506000811415610b88576040517f08c379a0000000000000000000000000000000000000000000000000000000008152600401808060200182810382526022815260200180611c396022913960400191505060405180910390fd5b60008113610be1576040517f08c379a000000000000000000000000000000000000000000000000000000000815260040180806020018281038252602d815260200180611c0c602d913960400191505060405180910390fd5b60028181548110610bee57fe5b9060005260206000200160006101000a81549073ffffffffffffffffffffffffffffffffffffffff02191690555050565b6000809054906101000a900473ffffffffffffffffffffffffffffffffffffffff1673ffffffffffffffffffffffffffffffffffffffff163373ffffffffffffffffffffffffffffffffffffffff1614610ce1576040517f08c379a00000000000000000000000000000000000000000000000000000000081526004018080602001828103825260078152602001807f44656e6965642e0000000000000000000000000000000000000000000000000081525060200191505060405180910390fd5b3373ffffffffffffffffffffffffffffffffffffffff16ff5b60007fffffffffffffffffffffffffffffffffffffffffffffffffffffffffffffffff905060008090505b600280549050811015610db6573373ffffffffffffffffffffffffffffffffffffffff1660028281548110610d5657fe5b9060005260206000200160009054906101000a900473ffffffffffffffffffffffffffffffffffffffff1673ffffffffffffffffffffffffffffffffffffffff161415610da95780915060028054905090505b8080600101915050610d25565b506000811215610e2e576040517f08c379a00000000000000000000000000000000000000000000000000000000081526004018080602001828103825260158152602001807f596f7520617265206e6f742061206d656d6265722e000000000000000000000081525060200191505060405180910390fd5b610e36611a04565b60035481600001818152505060036000815480929190600101919050555033816020019073ffffffffffffffffffffffffffffffffffffffff16908173ffffffffffffffffffffffffffffffffffffffff1681525050610e94611963565b8160000151816000018181525050848160200181905250838160400181905250808260a001819052504282604001818152505060075482606001818152505060008260c001901515908115158152505060008260e00190151590811515815250506004829080600181540180825580915050906001820390600052602060002090600a0201600090919290919091506000820151816000015560208201518160010160006101000a81548173ffffffffffffffffffffffffffffffffffffffff021916908373ffffffffffffffffffffffffffffffffffffffff16021790555060408201518160020155606082015181600301556080820151816004019080519060200190610fa4929190611a69565b5060a082015181600601600082015181600001556020820151816001019080519060200190610fd4929190611984565b506040820151816002019080519060200190610ff1929190611984565b50505060c08201518160090160006101000a81548160ff02191690831515021790555060e08201518160090160016101000a81548160ff0219169083151502179055505050508160000151826020015173ffffffffffffffffffffffffffffffffffffffff167fe28da1d80dec4ece82645bd52ae6a4118887a7cb56436b4024affa3b5d4463c960405160405180910390a35050505050565b6000600680549050905090565b600033905090565b6000600480549050905090565b600033905060006110bc826117b9565b90506000811215611135576040517f08c379a00000000000000000000000000000000000000000000000000000000081526004018080602001828103825260148152602001807f596f7520617265206e6f742061206d656d62657200000000000000000000000081525060200191505060405180910390fd5b600061114085611737565b905060008112156111b9576040517f08c379a000000000000000000000000000000000000000000000000000000000815260040180806020018281038252601d8152602001807f476976656e2050726f706f73616c20494420697320696e76616c69642e00000081525060200191505060405180910390fd5b6111c38382611880565b611218576040517f08c379a0000000000000000000000000000000000000000000000000000000008152600401808060200182810382526032815260200180611c5b6032913960400191505060405180910390fd5b836004828154811061122657fe5b90600052602060002090600a020160050160008573ffffffffffffffffffffffffffffffffffffffff1673ffffffffffffffffffffffffffffffffffffffff16815260200190815260200160002060006101000a81548160ff0219169083151502179055506004818154811061129857fe5b90600052602060002090600a02016004018390806001815401808255809150509060018203906000526020600020016000909192909190916101000a81548173ffffffffffffffffffffffffffffffffffffffff021916908373ffffffffffffffffffffffffffffffffffffffff160217905550505050505050565b6000809054906101000a900473ffffffffffffffffffffffffffffffffffffffff1673ffffffffffffffffffffffffffffffffffffffff163373ffffffffffffffffffffffffffffffffffffffff16146113d6576040517f08c379a00000000000000000000000000000000000000000000000000000000081526004018080602001828103825260078152602001807f44656e6965642e0000000000000000000000000000000000000000000000000081525060200191505060405180910390fd5b7fffffffffffffffffffffffffffffffffffffffffffffffffffffffffffffffff611400826117b9565b14611456576040517f08c379a0000000000000000000000000000000000000000000000000000000008152600401808060200182810382526026815260200180611be66026913960400191505060405180910390fd5b60028190806001815401808255809150509060018203906000526020600020016000909192909190916101000a81548173ffffffffffffffffffffffffffffffffffffffff021916908373ffffffffffffffffffffffffffffffffffffffff160217905550506001600081548092919060010191905055508073ffffffffffffffffffffffffffffffffffffffff167fb251eb052afc73ffd02ffe85ad79990a8b3fed60d76dbc2fa2fdd7123dffd91460405160405180910390a250565b6000809054906101000a900473ffffffffffffffffffffffffffffffffffffffff1673ffffffffffffffffffffffffffffffffffffffff163373ffffffffffffffffffffffffffffffffffffffff16146115d6576040517f08c379a00000000000000000000000000000000000000000000000000000000081526004018080602001828103825260078152602001807f44656e6965642e0000000000000000000000000000000000000000000000000081525060200191505060405180910390fd5b60006115e182611737565b9050600081121561165a576040517f08c379a000000000000000000000000000000000000000000000000000000000815260040180806020018281038252601d8152602001807f476976656e2050726f706f73616c20494420697320696e76616c69642e00000081525060200191505060405180910390fd5b6004818154811061166757fe5b90600052602060002090600a02016000808201600090556001820160006101000a81549073ffffffffffffffffffffffffffffffffffffffff0219169055600282016000905560038201600090556004820160006116c59190611af3565b600682016000808201600090556001820160006116e29190611b14565b6002820160006116f29190611b14565b50506009820160006101000a81549060ff02191690556009820160016101000a81549060ff021916905550505050565b6000600280549050905090565b600042905090565b6000807fffffffffffffffffffffffffffffffffffffffffffffffffffffffffffffffff905060008090505b6004805490508110156117af57836004828154811061177e57fe5b90600052602060002090600a02016000015414156117a25780915060048054905090505b8080600101915050611763565b5080915050919050565b6000807fffffffffffffffffffffffffffffffffffffffffffffffffffffffffffffffff905060008090505b600280549050811015611876578373ffffffffffffffffffffffffffffffffffffffff166002828154811061181657fe5b9060005260206000200160009054906101000a900473ffffffffffffffffffffffffffffffffffffffff1673ffffffffffffffffffffffffffffffffffffffff1614156118695780915060028054905090505b80806001019150506117e5565b5080915050919050565b6000806000905060006004848154811061189657fe5b90600052602060002090600a020160040180549050905060008090505b8181101561195757600485815481106118c857fe5b90600052602060002090600a020160040181815481106118e457fe5b9060005260206000200160009054906101000a900473ffffffffffffffffffffffffffffffffffffffff1673ffffffffffffffffffffffffffffffffffffffff168673ffffffffffffffffffffffffffffffffffffffff16141561194a57600192508190505b80806001019150506118b3565b50819250505092915050565b60405180606001604052806000815260200160608152602001606081525090565b828054600181600116156101000203166002900490600052602060002090601f016020900481019282601f106119c557805160ff19168380011785556119f3565b828001600101855582156119f3579182015b828111156119f25782518255916020019190600101906119d7565b5b509050611a009190611b5c565b5090565b60405180610140016040528060008152602001600073ffffffffffffffffffffffffffffffffffffffff168152602001600081526020016000815260200160608152602001611a51611b81565b81526020016000151581526020016000151581525090565b828054828255906000526020600020908101928215611ae2579160200282015b82811115611ae15782518260006101000a81548173ffffffffffffffffffffffffffffffffffffffff021916908373ffffffffffffffffffffffffffffffffffffffff16021790555091602001919060010190611a89565b5b509050611aef9190611ba2565b5090565b5080546000825590600052602060002090810190611b119190611b5c565b50565b50805460018160011615610100020316600290046000825580601f10611b3a5750611b59565b601f016020900490600052602060002090810190611b589190611b5c565b5b50565b611b7e91905b80821115611b7a576000816000905550600101611b62565b5090565b90565b60405180606001604052806000815260200160608152602001606081525090565b611be291905b80821115611bde57600081816101000a81549073ffffffffffffffffffffffffffffffffffffffff021916905550600101611ba8565b5090565b9056fe54686520676976656e206164647265737320697320616c72656164792061206d656d6265722e476976656e206d656d626572206164647265737320697320616c7265616479206e6f742061206d656d6265722e43616e206e6f742072656d6f7665207468652064656661756c74206d656d6265722e596f757220766f74652068617320616c7265616479206265656e206361737420666f7220746869732050726f706f73616c2ea165627a7a72305820a8a77873487bd1fe1b4eff617fd84a86bb08413c214c5e37334f82dac194bc450029",
  "source": "pragma solidity ^0.5.0;\n\n/**\n\n@title An Election testing platform\n@author WG\n\n@notice Proposal duration time is in minutes\n@dev Currently using 'now' for time\n\nNotes:\n\n* Member        an address\n* Vote          member vote\n* Bill          articles of legislation\n* Proposal      member vote on law modifications\n* Law           collection of passed bills\n\n*/\n\ncontract Law {\n\n    event MemberAdded(\n        address indexed _a\n    );\n\n    event ProposalCreated(\n        address indexed _from,\n        uint indexed _id\n    );\n\n// - Structures -\n    struct Bill {\n        uint id;\n        string name;\n        string data;\n    }\n    struct Proposal {\n        uint id;\n        address creator;\n        uint start_time;\n        uint duration;\n        address[] voters;\n        mapping(address => bool) votes;\n        Bill bill;\n        bool complete;\n        bool pass;\n    }\n\n// - Variables -\n    // main contract admin\n    address bossman;\n    // collection of members\n    uint member_count; // continuing ID\n    address[] members;\n    // proposals\n    uint proposal_count; // continuing ID\n    Proposal[] proposals;\n    // law\n    uint law_count; // continuing ID\n    Bill[] law;\n    // other\n    uint default_duration;\n\n// - Constructor -\n    constructor (address b) public {\n        bossman = b;\n\n        members.push(bossman);\n\n        member_count = 1;\n        proposal_count = 0;\n        law_count = 0;\n\n        default_duration = 1;\n    }\n\n// - Modifiers -\n\n    modifier onlyBoss() {\n        require(msg.sender == bossman, \"Denied.\");\n        _;\n    }\n    modifier onlyMember() {\n        int l = -1;\n        for (uint i = 0; i<members.length; i++) {\n            if (members[i] == msg.sender) {\n                l = int(i);\n                i = members.length;\n            }\n        }\n        require(l >= 0, \"You are not a member.\");\n        _;\n    }\n\n// - Private Functions -\n\n//    /// @param a: Member address\n    function checkMemberExist(address a) private view returns (int) {\n        int l = -1;\n        for (uint i = 0; i<members.length; i++) {\n            if (members[i] == a) {\n                l = int(i);\n                i = members.length;\n            }\n        }\n        return l;\n    }\n//    /// @param id: Proposal ID\n    function checkProposalExist(uint id) private view returns (int) {\n        int l = -1;\n        for (uint i = 0; i<proposals.length; i++) {\n            if (proposals[i].id == id) {\n                l = int(i);\n                i = proposals.length;\n            }\n        }\n        return l;\n    }\n//    /// @param id: Law ID\n    function checkLawExist(uint id) private view returns (int) {\n        int l = -1;\n        for (uint i = 0; i<law.length; i++) {\n            if (law[i].id == id) {\n                l = int(i);\n                i = law.length;\n            }\n        }\n        return l;\n    }\n//    /// @param a: The members address\n//    /// @param l: The proposals array location\n    /// @return False if a vote has not been cast\n    function checkVoteCast(address a, uint l) private view returns (bool) {\n        bool cast = false;\n        uint vote_count = proposals[l].voters.length;\n        for (uint i = 0; i<vote_count; i++) {\n            if(a == proposals[l].voters[i]) {\n                cast = true;\n                i = vote_count;\n            }\n        }\n        return cast;\n    }\n    /// @notice Require proposal pass\n//    /// @param b: Bill to add\n    function addLaw(Bill storage b) private {\n        uint id = law_count;\n        law_count++;\n        b.id = id;\n        law.push(b);\n    }\n    /// @notice Require proposal pass\n//    /// @param  id: Bill ID to remove\n    function removeLaw(uint id) private {\n        int l = checkLawExist(id);\n        require(l >= 0, \"The given Bill ID does not exist.\");\n        delete law[uint(l)];\n    }\n\n// - Public Functions -\n\n    /// @notice Require proposal pass\n//    /// @param a: Member address to add\n    function addMember(address a) public onlyBoss {\n        require(checkMemberExist(a) == -1, \"The given address is already a member.\");\n        members.push(a);\n        member_count++;\n        emit MemberAdded(a);\n    }\n    /// @notice Require proposal pass\n//    /// @param a: Member address to remove\n    function removeMember(address a) public onlyBoss {\n        int l = checkMemberExist(a);\n        require(l != 0, \"Can not remove the default member.\");\n        require(l > 0, \"Given member address is already not a member.\");\n        delete members[uint(l)];\n    }\n    /// @notice Require member\n    /// @dev Consider adding different proposal actions\n//    /// @param n: Bill name\n//    /// @param d: Bill description\n    function createProposal(string memory n, string memory d) public onlyMember {\n        Proposal memory p;\n        p.id = proposal_count;\n        proposal_count++;\n        p.creator = msg.sender;\n        // Bill\n        Bill memory b;\n        b.id = p.id;\n        b.name = n;\n        b.data = d;\n        //\n        p.bill = b;\n        p.start_time = now;\n        p.duration = default_duration;\n        p.complete = false;\n        p.pass = false;\n        //\n        proposals.push(p);\n        emit ProposalCreated(p.creator, p.id);\n    }\n//    /// @param id: Proposal ID to cancel\n    function cancelProposal(uint id) public onlyBoss {\n        int l = checkProposalExist(id);\n        require(l >= 0, \"Given Proposal ID is invalid.\");\n        delete proposals[uint(l)];\n    }\n    /// @notice pass (true) or fail (false)\n//    /// @param id: proposal id\n//    /// @param pass: the members vote (true, false)\n    function vote(uint id, bool pass) public {\n        address a = msg.sender;\n        int lm = checkMemberExist(a);\n        require(lm >= 0, \"You are not a member\");\n        int lp = checkProposalExist(id);\n        require(lp >= 0, \"Given Proposal ID is invalid.\");\n        // check if member has voted yet\n        require(checkVoteCast(a, uint(lp)), \"Your vote has already been cast for this Proposal.\");\n        // apply vote\n        proposals[uint(lp)].votes[a] = pass;\n        proposals[uint(lp)].voters.push(a);\n    }\n    /// @notice onlyBoss\n//    /// @param id: proposal id\n    function closeProposal(uint id) public onlyBoss {\n        int l = checkProposalExist(id);\n        require(l >= 0, \"Given Proposal ID is invalid.\");\n        // check if end time has been reached\n        uint start = proposals[uint(l)].start_time;\n        uint duration = proposals[uint(l)].duration * 1 minutes;\n        //uint duration = proposals[uint(l)].duration * 1 hours;\n        uint end_time = start + duration;\n        uint time = now;\n        require(time >= end_time, \"The Proposal is still in.\");\n        proposals[uint(l)].complete = true;\n        // tally votes\n        uint votes_for = 0;\n        uint vote_count = proposals[uint(l)].voters.length;\n        for (uint i = 0; i<vote_count; i++) {\n            address voter = proposals[uint(l)].voters[i];\n            if (proposals[uint(l)].votes[voter]) votes_for++;\n        }\n        // if passed...\n        // add to law\n        uint score = votes_for / vote_count * 100;\n        if (score > 50) {\n            proposals[uint(l)].pass = true;\n            Bill memory b = proposals[uint(l)].bill;\n            law.push(b);\n            law_count++;\n        }\n\n    }\n    // Return list of members\n    function returnMemberCount() public view returns (uint) {\n        return members.length;\n    }\n    // Return list of running proposals\n    function returnProposalCount() public view returns (uint) {\n        return proposals.length;\n    }\n    // Return laws\n    function returnLawCount() public view returns (uint) {\n        return law.length;\n    }\n\n// - Testing -\n    // /// @return Return senders adress\n    function returnSenderAddress() public view returns (address) {\n        return msg.sender;\n    }\n    function returnNow() public view returns (uint) {\n        return uint(now);\n    }\n    function testBoss() public view returns (bool) {\n        if (msg.sender == bossman) return true;\n        return false;\n    }\n/*\n    function returnBalance() public {\n        return msg.sender.balance();\n    }\n\n    function returnInfo() public onlyBoss {\n\n    }\n*/\n\n// - Tools -\n    function kill() public onlyBoss {\n        selfdestruct(msg.sender);\n    }\n}",
  "sourcePath": "/home/cyborg/Documents/dApp/Law/contracts/Law.sol",
  "compiler": {
    "name": "solc",
    "version": "0.5.8+commit.23d335f2.Emscripten.clang"
  },
  "schemaVersion": "3.0.17",
  "updatedAt": "2019-11-09T02:26:36.263Z",
  "networkType": "ethereum",
  "devdoc": {
    "author": "WG",
    "details": "Currently using 'now' for time Notes: Member        an address Vote          member vote Bill          articles of legislation Proposal      member vote on law modifications Law           collection of passed bills",
    "methods": {
      "createProposal(string,string)": {
        "details": "Consider adding different proposal actions"
      }
    },
    "title": "An Election testing platform"
  },
  "userdoc": {
    "methods": {
      "addMember(address)": {
        "notice": "Require proposal pass"
      },
      "closeProposal(uint256)": {
        "notice": "onlyBoss"
      },
      "createProposal(string,string)": {
        "notice": "Require member"
      },
      "removeMember(address)": {
        "notice": "Require proposal pass"
      },
      "vote(uint256,bool)": {
        "notice": "pass (true) or fail (false)"
      }
    },
    "notice": "Proposal duration time is in minutes"
  }
}