{
  "contractName": "Members",
  "abi": [
    {
      "inputs": [
        {
          "name": "b",
          "type": "address"
        }
      ],
      "payable": false,
      "stateMutability": "nonpayable",
      "type": "constructor"
    },
    {
      "anonymous": false,
      "inputs": [
        {
          "indexed": true,
          "name": "_new",
          "type": "address"
        },
        {
          "indexed": true,
          "name": "_from",
          "type": "address"
        }
      ],
      "name": "MemberAdded",
      "type": "event"
    },
    {
      "anonymous": false,
      "inputs": [
        {
          "indexed": true,
          "name": "_list",
          "type": "address[]"
        }
      ],
      "name": "MemberList",
      "type": "event"
    },
    {
      "constant": true,
      "inputs": [
        {
          "name": "a",
          "type": "address"
        }
      ],
      "name": "checkMemberExist",
      "outputs": [
        {
          "name": "",
          "type": "int256"
        }
      ],
      "payable": false,
      "stateMutability": "view",
      "type": "function"
    },
    {
      "constant": true,
      "inputs": [
        {
          "name": "a",
          "type": "address"
        }
      ],
      "name": "checkMemberIsBoss",
      "outputs": [
        {
          "name": "",
          "type": "bool"
        }
      ],
      "payable": false,
      "stateMutability": "view",
      "type": "function"
    },
    {
      "constant": false,
      "inputs": [
        {
          "name": "a",
          "type": "address"
        }
      ],
      "name": "addMember",
      "outputs": [],
      "payable": false,
      "stateMutability": "nonpayable",
      "type": "function"
    },
    {
      "constant": false,
      "inputs": [
        {
          "name": "a",
          "type": "address"
        }
      ],
      "name": "removeMember",
      "outputs": [],
      "payable": false,
      "stateMutability": "nonpayable",
      "type": "function"
    },
    {
      "constant": false,
      "inputs": [],
      "name": "emitMemberList",
      "outputs": [],
      "payable": false,
      "stateMutability": "nonpayable",
      "type": "function"
    },
    {
      "constant": true,
      "inputs": [],
      "name": "returnMemberCount",
      "outputs": [
        {
          "name": "",
          "type": "uint256"
        }
      ],
      "payable": false,
      "stateMutability": "view",
      "type": "function"
    },
    {
      "constant": false,
      "inputs": [],
      "name": "kill",
      "outputs": [],
      "payable": false,
      "stateMutability": "nonpayable",
      "type": "function"
    }
  ],
  "bytecode": "0x608060405234801561001057600080fd5b506040516020806111538339810180604052602081101561003057600080fd5b810190808051906020019092919050505080600460006101000a81548173ffffffffffffffffffffffffffffffffffffffff021916908373ffffffffffffffffffffffffffffffffffffffff16021790555061008a6101ad565b600460009054906101000a900473ffffffffffffffffffffffffffffffffffffffff16816000019073ffffffffffffffffffffffffffffffffffffffff16908173ffffffffffffffffffffffffffffffffffffffff168152505060018160200190151590811515815250506002819080600181540180825580915050906001820390600052602060002090600202016000909192909190915060008201518160000160006101000a81548173ffffffffffffffffffffffffffffffffffffffff021916908373ffffffffffffffffffffffffffffffffffffffff16021790555060208201518160000160146101000a81548160ff0219169083151502179055506040820151816001015550505060016000819055506001808190555050506101e6565b6040518060600160405280600073ffffffffffffffffffffffffffffffffffffffff168152602001600015158152602001600081525090565b610f5e806101f56000396000f3fe608060405234801561001057600080fd5b506004361061007d5760003560e01c806378aefb4f1161005b57806378aefb4f1461012c578063ca6d56dc14610184578063e034fd51146101c8578063ec759b32146101d25761007d565b80630b1ca49a1461008257806341c0e1b5146100c65780634f451743146100d0575b600080fd5b6100c46004803603602081101561009857600080fd5b81019080803573ffffffffffffffffffffffffffffffffffffffff1690602001909291905050506101f0565b005b6100ce6103c2565b005b610112600480360360208110156100e657600080fd5b81019080803573ffffffffffffffffffffffffffffffffffffffff16906020019092919050505061049e565b604051808215151515815260200191505060405180910390f35b61016e6004803603602081101561014257600080fd5b81019080803573ffffffffffffffffffffffffffffffffffffffff1690602001909291905050506106c3565b6040518082815260200191505060405180910390f35b6101c66004803603602081101561019a57600080fd5b81019080803573ffffffffffffffffffffffffffffffffffffffff169060200190929190505050610791565b005b6101d0610a48565b005b6101da610cf9565b6040518082815260200191505060405180910390f35b600460009054906101000a900473ffffffffffffffffffffffffffffffffffffffff1673ffffffffffffffffffffffffffffffffffffffff163373ffffffffffffffffffffffffffffffffffffffff16146102b3576040517f08c379a00000000000000000000000000000000000000000000000000000000081526004018080602001828103825260078152602001807f44656e6965642e0000000000000000000000000000000000000000000000000081525060200191505060405180910390fd5b60006102be826106c3565b9050600081121561031a576040517f08c379a000000000000000000000000000000000000000000000000000000000815260040180806020018281038252602d815260200180610ee4602d913960400191505060405180910390fd5b6000811415610374576040517f08c379a0000000000000000000000000000000000000000000000000000000008152600401808060200182810382526022815260200180610f116022913960400191505060405180910390fd5b60006002828154811061038357fe5b906000526020600020906002020160000160146101000a81548160ff021916908315150217905550600160008154809291906001900391905055505050565b600460009054906101000a900473ffffffffffffffffffffffffffffffffffffffff1673ffffffffffffffffffffffffffffffffffffffff163373ffffffffffffffffffffffffffffffffffffffff1614610485576040517f08c379a00000000000000000000000000000000000000000000000000000000081526004018080602001828103825260078152602001807f44656e6965642e0000000000000000000000000000000000000000000000000081525060200191505060405180910390fd5b3373ffffffffffffffffffffffffffffffffffffffff16ff5b6000807fffffffffffffffffffffffffffffffffffffffffffffffffffffffffffffffff905060008090505b600280549050811015610645573373ffffffffffffffffffffffffffffffffffffffff16600282815481106104fb57fe5b906000526020600020906002020160000160009054906101000a900473ffffffffffffffffffffffffffffffffffffffff1673ffffffffffffffffffffffffffffffffffffffff1614156105555780915060028054905090505b60008090506000610565866106c3565b12156105d9576040517f08c379a000000000000000000000000000000000000000000000000000000000815260040180806020018281038252601e8152602001807f476976656e2061646472657373206973206e6f742061206d656d6265722e000081525060200191505060405180910390fd5b600460009054906101000a900473ffffffffffffffffffffffffffffffffffffffff1673ffffffffffffffffffffffffffffffffffffffff168573ffffffffffffffffffffffffffffffffffffffff16141561063457600190505b8093505080806001019150506104ca565b5060008112156106bd576040517f08c379a00000000000000000000000000000000000000000000000000000000081526004018080602001828103825260158152602001807f596f7520617265206e6f742061206d656d6265722e000000000000000000000081525060200191505060405180910390fd5b50919050565b6000807fffffffffffffffffffffffffffffffffffffffffffffffffffffffffffffffff905060008090505b600280549050811015610787578373ffffffffffffffffffffffffffffffffffffffff166002828154811061072057fe5b906000526020600020906002020160000160009054906101000a900473ffffffffffffffffffffffffffffffffffffffff1673ffffffffffffffffffffffffffffffffffffffff16141561077a5780915060028054905090505b80806001019150506106ef565b5080915050919050565b600460009054906101000a900473ffffffffffffffffffffffffffffffffffffffff1673ffffffffffffffffffffffffffffffffffffffff163373ffffffffffffffffffffffffffffffffffffffff1614610854576040517f08c379a00000000000000000000000000000000000000000000000000000000081526004018080602001828103825260078152602001807f44656e6965642e0000000000000000000000000000000000000000000000000081525060200191505060405180910390fd5b7fffffffffffffffffffffffffffffffffffffffffffffffffffffffffffffffff61087e826106c3565b146108d4576040517f08c379a0000000000000000000000000000000000000000000000000000000008152600401808060200182810382526026815260200180610ebe6026913960400191505060405180910390fd5b6108dc610e3e565b81816000019073ffffffffffffffffffffffffffffffffffffffff16908173ffffffffffffffffffffffffffffffffffffffff168152505060018160200190151590811515815250506002819080600181540180825580915050906001820390600052602060002090600202016000909192909190915060008201518160000160006101000a81548173ffffffffffffffffffffffffffffffffffffffff021916908373ffffffffffffffffffffffffffffffffffffffff16021790555060208201518160000160146101000a81548160ff0219169083151502179055506040820151816001015550505060008081548092919060010191905055506001600081548092919060010191905055503373ffffffffffffffffffffffffffffffffffffffff168273ffffffffffffffffffffffffffffffffffffffff167f6a2af11b2d73f347f9d5840aea46899e17609730b5cd91bd9c312098038acba660405160405180910390a35050565b60007fffffffffffffffffffffffffffffffffffffffffffffffffffffffffffffffff905060008090505b600280549050811015610c7e573373ffffffffffffffffffffffffffffffffffffffff1660028281548110610aa457fe5b906000526020600020906002020160000160009054906101000a900473ffffffffffffffffffffffffffffffffffffffff1673ffffffffffffffffffffffffffffffffffffffff161415610afe5780915060028054905090505b60036000610b0c9190610e77565b60008090505b600054811015610bcd57600360028281548110610b2b57fe5b906000526020600020906002020160000160009054906101000a900473ffffffffffffffffffffffffffffffffffffffff1690806001815401808255809150509060018203906000526020600020016000909192909190916101000a81548173ffffffffffffffffffffffffffffffffffffffff021916908373ffffffffffffffffffffffffffffffffffffffff160217905550508080600101915050610b12565b506003604051808280548015610c3857602002820191906000526020600020905b8160009054906101000a900473ffffffffffffffffffffffffffffffffffffffff1673ffffffffffffffffffffffffffffffffffffffff1681526020019060010190808311610bee575b505091505060405180910390207f822297a9e988da515849c14f32524d6b0adc57889f3945818c7b501fa9678b9260405160405180910390a28080600101915050610a73565b506000811215610cf6576040517f08c379a00000000000000000000000000000000000000000000000000000000081526004018080602001828103825260158152602001807f596f7520617265206e6f742061206d656d6265722e000000000000000000000081525060200191505060405180910390fd5b50565b6000807fffffffffffffffffffffffffffffffffffffffffffffffffffffffffffffffff905060008090505b600280549050811015610dc2573373ffffffffffffffffffffffffffffffffffffffff1660028281548110610d5657fe5b906000526020600020906002020160000160009054906101000a900473ffffffffffffffffffffffffffffffffffffffff1673ffffffffffffffffffffffffffffffffffffffff161415610db05780915060028054905090505b60015492508080600101915050610d25565b506000811215610e3a576040517f08c379a00000000000000000000000000000000000000000000000000000000081526004018080602001828103825260158152602001807f596f7520617265206e6f742061206d656d6265722e000000000000000000000081525060200191505060405180910390fd5b5090565b6040518060600160405280600073ffffffffffffffffffffffffffffffffffffffff168152602001600015158152602001600081525090565b5080546000825590600052602060002090810190610e959190610e98565b50565b610eba91905b80821115610eb6576000816000905550600101610e9e565b5090565b9056fe54686520676976656e206164647265737320697320616c72656164792061206d656d6265722e476976656e206d656d626572206164647265737320697320616c7265616479206e6f742061206d656d6265722e43616e206e6f742072656d6f7665207468652064656661756c74206d656d6265722ea165627a7a72305820ca1507c96e0b505ef6841bb84e2f5dadeabd1ded2c59852921cc2dd84f15ea170029",
  "source": "pragma solidity ^0.5.0;\n\n/**\n\n@title Members\n@author WG\n@notice Members with an address\n@dev Currently using 'now' for time\n@dev Notice active and deactivated accounts\n\nNotes:\n\nonlyBoss\nonlyMember\n\ncheckMemberExists(address)\ncheckMemberIsBoss(address)\naddMember(address)\nremoveMember(address)\nreturnMemberCount()\nreturnMemberList()\n\n*/\n\ncontract Members {\n\n    event MemberAdded(\n        address indexed _new,\n        address indexed _from\n    );\n\n    event MemberList(\n        address[] indexed _list\n    );\n\n    struct Member {\n        address a;\n        bool active;\n        uint balance;\n    }\n\n    // collection of members\n    uint member_count; // continuing ID\n    uint member_active; // number of active members\n    Member[] members;\n    address[] member_temp;\n    // main contract admin\n    address bossman;\n\n    // - Constructor -\n    constructor (address b) public {\n        bossman = b;\n        Member memory m;\n        m.a = bossman;\n        m.active = true;\n        members.push(m);\n        member_count = 1;\n        member_active = 1;\n    }\n\n    modifier onlyBoss()  {\n        require(msg.sender == bossman, \"Denied.\");\n        _;\n    }\n    modifier onlyMember() {\n        int l = -1;\n        for (uint i = 0; i<members.length; i++) {\n            if (members[i].a == msg.sender) {\n                l = int(i);\n                i = members.length;\n            }\n            _;\n        }\n        require(l >= 0, \"You are not a member.\");\n    }\n\n//    /// @param a: Member address\n    function checkMemberExist(address a) public view returns (int) {\n        int l = -1;\n        for (uint i = 0; i<members.length; i++) {\n            if (members[i].a == a) {\n                l = int(i);\n                i = members.length;\n            }\n        }\n        return l;\n    }\n    function checkMemberIsBoss(address a) public view onlyMember returns (bool) {\n        bool boss = false;\n        require(checkMemberExist(a) >= 0, \"Given address is not a member.\");\n        if (a == bossman) boss = true;\n        return boss;\n    }\n\n// - Public Functions -\n\n    /// @notice Require proposal pass\n//    /// @param a: Member address to add\n    function addMember(address a) public onlyBoss {\n        require(checkMemberExist(a) == -1, \"The given address is already a member.\");\n        Member memory m;\n        m.a = a;\n        m.active = true;\n        members.push(m);\n        member_count++;\n        member_active++;\n        emit MemberAdded(a, msg.sender);\n    }\n    /// @notice Require proposal pass\n//    /// @param a: Member address to remove\n    function removeMember(address a) public onlyBoss {\n        int l = checkMemberExist(a);\n        require(l >= 0, \"Given member address is already not a member.\");\n        require(l != 0, \"Can not remove the default member.\");\n        members[uint(l)].active = false;\n        member_active--;\n    }\n    // Return list of members\n    function emitMemberList() public onlyMember {\n        delete member_temp;\n        for (uint i = 0; i<member_count; i++) {\n            member_temp.push(members[i].a);\n        }\n        emit MemberList(member_temp);\n    }\n    // Return count of active members\n    function returnMemberCount() public view onlyMember returns (uint) {\n        return member_active;\n    }\n\n// - Tools -\n    function kill() public onlyBoss {\n        selfdestruct(msg.sender);\n    }\n}\n\n",
  "sourcePath": "/home/cyborg/Documents/dApp/group/contracts/Members.sol",
  "compiler": {
    "name": "solc",
    "version": "0.5.8+commit.23d335f2.Emscripten.clang"
  },
  "schemaVersion": "3.0.17",
  "updatedAt": "2019-11-09T09:08:11.119Z",
  "networkType": "ethereum",
  "devdoc": {
    "author": "WG",
    "details": "Currently using 'now' for timeNotice active and deactivated accounts Notes: onlyBoss onlyMember checkMemberExists(address) checkMemberIsBoss(address) addMember(address) removeMember(address) returnMemberCount() returnMemberList()",
    "methods": {},
    "title": "Members"
  },
  "userdoc": {
    "methods": {
      "addMember(address)": {
        "notice": "Require proposal pass"
      },
      "removeMember(address)": {
        "notice": "Require proposal pass"
      }
    },
    "notice": "Members with an address"
  }
}